:020000040800F2
:1000000050040020A90200080503000805030008A9
:1000100005030008050300080503000800000000B0
:1000200000000000000000000000000005030008C0
:10003000050300080000000005030008DD160008A5
:100040000503000805030008050300080503000870
:100050000503000805030008050300080503000860
:100060000503000805030008050300080503000850
:100070000503000805030008050300080503000840
:100080000503000805030008050300080503000830
:100090000503000805030008050300080503000820
:1000A0000503000805030008050300080503000810
:1000B0000503000805030008050300080503000800
:1000C00005030008050300080503000805030008F0
:1000D00005030008050300080503000805030008E0
:1000E00005030008050300080503000805030008D0
:1000F00005030008050300080503000805030008C0
:1001000005030008050300080503000805030008AF
:10011000050300080503000805030008050300089F
:10012000050300080503000805030008050300088F
:100130005FF808F180B500AF154A154B1B6843F016
:10014000010313601249124B5A68124B13404B6063
:100150000F4A0F4B1B6823F0847323F48033136022
:100160000B4A0B4B1B6823F480231360084A084B8F
:100170005B6823F4FE035360054B4FF41F029A6043
:1001800000F00CF8044B4FF000629A6080BD00BF95
:10019000001002400000FFF800ED00E080B500AF65
:1001A00000F002F880BD00BF80B483B000AF002330
:1001B0007B6000233B603A4A394B1B6843F4803331
:1001C0001360374B1B6803F400333B607B680133DB
:1001D0007B603B68002B03D17B68B3F5A06FF0D147
:1001E0002F4B1B6803F40033002B02D001233B602C
:1001F00001E000233B603B68012B4BD1294A294B8E
:100200001B6843F010031360264A264B1B6823F03B
:1002100003031360234A234B1B6843F0020313605C
:100220001F4A1F4B5B6853601D4A1D4B5B68536040
:100230001B4A1B4B5B6843F480635360184A184B9E
:100240005B6823F47C135360154A154B5B6843F4D9
:10025000E8135360124A124B1B6843F0807313601B
:1002600000BF0F4B1B6803F00073002BF9D00C4A42
:100270000B4B5B6823F003035360094A084B5B6830
:1002800043F00203536000BF054B5B6803F00C03AF
:10029000082BF9D10C37BD465DF8047B704700BFD1
:1002A000001002400020024080B582B000AF104B29
:1002B0007B60104B3B6007E03B681A1D3A607A6830
:1002C000111D796012681A603B680B4A9342F3D3A0
:1002D0000A480B494FF000028842B8BF40F8042B8F
:1002E000FADBFFF727FF00F005F90837BD4680BDB0
:1002F000FC22000800000020140000201400002050
:100300004C00002080B400AFFEE700BF80B489B08D
:1003100000AF786039600023FB6100233B6100235C
:10032000BB610023FB6000237B610023BB603B6853
:10033000DB7803F00F03FB613B68DB7803F010030D
:10034000002B05D03B689B781A46FB691343FB6181
:100350003B681B88DBB2002B44D07B681B687B6149
:100360000023BB6138E0BB69012202FA03F3FB60A2
:100370003B681B881A46FB6813403B613A69FB687F
:100380009A4226D1BB699B00FB60FB680F2202FAF0
:1003900003F3BB60BB68DB437A6913407B61FB6896
:1003A000FA6902FA03F37A6913437B613B68DB78ED
:1003B000282B05D1BB6901229A407B685A6108E06D
:1003C0003B68DB78482B04D1BB6901229A407B68EB
:1003D0001A61BB690133BB61BB69072BC3D97B6859
:1003E0007A691A603B681B88FF2B4AD97B685B6877
:1003F0007B610023BB613EE0BB6908331A460123E1
:100400009340FB603B681B881A46FB6813403B61C6
:100410003A69FB689A422BD1BB699B00FB60FB6881
:100420000F2202FA03F3BB60BB68DB437A69134017
:100430007B61FB68FA6902FA03F37A6913437B6113
:100440003B68DB78282B07D1BB6908331A460123A8
:1004500003FA02F27B685A613B68DB78482B07D1CC
:10046000BB6908331A46012303FA02F27B681A615A
:10047000BB690133BB61BB69072BBDD97B687A6956
:100480005A602437BD465DF8047B704780B483B062
:1004900000AF78600B467B807A887B681A610C37E6
:1004A000BD465DF8047B704780B483B000AF7860D0
:1004B0000B467B807A887B685A610C37BD465DF8B5
:1004C000047B704780B483B000AF78600B467B80BC
:1004D00013467B707B78002B03D07A887B681A6187
:1004E00002E07A887B685A610C37BD465DF8047B70
:1004F000704700BF80B500AFFFF71CFE00F048F961
:1005000000F028FD01F08CF800F03EFA00F0D0FF7A
:1005100000F072FD0246154B1A600120012100F027
:100520004FFA134800F0A4FA104B1B68184601F06C
:10053000B1FE0346184600F0B1FA00F05DFF024636
:100540000A4B1A600120022100F03AFA094800F033
:100550008FFA064B1B68184601F09CFE03461846AE
:1005600000F09CFA022001F0A3F8CDE7340000204F
:10057000E0220008F022000880B487B000AF786065
:1005800000237B6100233B610023FB600023BB60F1
:100590004D4B5B6803F00C037B617B69042B07D038
:1005A000082B09D0002B34D17B68484A1A6034E00C
:1005B0007B68464A1A6030E0434B5B6803F4701373
:1005C0003B61414B5B6803F48033FB603B699B0CF0
:1005D00002333B61FB68002B06D13B693C4A02FBBE
:1005E00003F27B681A6013E0374B5B6803F4003357
:1005F000002B06D03B69364A02FB03F27B681A6087
:1006000006E03B69314A02FB03F27B681A6004E0B2
:1006100003E07B682D4A1A6000BF2B4B5B6803F038
:10062000F0037B617B691B097B612A4A7B69134468
:100630001B78DBB2BB607B681A68BB68DA407B68FA
:100640005A60214B5B6803F4E0637B617B691B0AA2
:100650007B61204A7B6913441B78DBB2BB607B68FB
:100660005A68BB68DA407B689A60174B5B6803F492
:1006700060537B617B69DB0A7B61164A7B691344AB
:100680001B78DBB2BB607B685A68BB68DA407B686A
:10069000DA600D4B5B6803F440437B617B699B0B25
:1006A0007B610D4A7B6913441B78DBB2BB607B68BE
:1006B000DA68BB68B2FBF3F27B681A611C37BD468F
:1006C0005DF8047B704700BF0010024000127A0002
:1006D00000093D00000000201000002080B483B01D
:1006E00000AF78600B46FB70FB78002B06D0094901
:1006F000084B9A697B6813438B6106E00549054BFB
:100700009A697B68DB4313408B610C37BD465DF80B
:10071000047B70470010024080B483B000AF786063
:100720000B46FB70FB78002B06D00949084BDA69B1
:100730007B681343CB6106E00549054BDA697B68AA
:10074000DB431340CB610C37BD465DF8047B70473B
:100750000010024080B483B000AF78600B46FB709D
:10076000FB78002B06D00949084B1A697B681343B4
:100770000B6106E00549054B1A697B68DB431340B2
:100780000B610C37BD465DF8047B704700100240DA
:1007900080B582B000AF00F043F800F041FF1F4881
:1007A0000121FFF781FE1D480421FFF77DFE502047
:1007B00000F06AFF0023FB7108E0032000F06EF8F0
:1007C000052000F061FFFB790133FB71FB79022BFF
:1007D000F3D9022000F062F8142000F055FF002049
:1007E000A02100F09DF8052000F04EFF00200E2112
:1007F00000F096F8052000F047FF0020062100F0E9
:100800008FF8052000F040FF0020012100F088F85B
:10081000052000F039FF0837BD4680BD00080140C3
:1008200080B582B000AF04200121FFF757FF1023ED
:10083000FB710323BB710423BB803B1D1648194683
:10084000FFF764FD0123BB803B1D13481946FFF7EA
:100850005DFD1023BB803B1D0F481946FFF756FD79
:100860002023BB803B1D0C481946FFF74FFD40235A
:10087000BB803B1D08481946FFF748FD8023BB801D
:100880003B1D05481946FFF741FD03480421FFF7CA
:10089000FDFD0837BD4680BD0008014080B582B02F
:1008A00000AF0346FB71FB7903F00103DBB21B4889
:1008B00010211A46FFF706FEFB795B08DBB203F056
:1008C0000103DBB2154820211A46FFF7FBFDFB7937
:1008D0009B08DBB203F00103DBB2104840211A464B
:1008E000FFF7F0FDFB79DB08DBB203F00103DBB2BD
:1008F0000A4880211A46FFF7E5FD012000F0C4FEFA
:1009000006480421FFF7C2FD012000F0BDFE0348A8
:100910000421FFF7C9FD0837BD4680BD000801402E
:1009200080B582B000AF03460A46FB711346BB7127
:1009300014480121FFF7B8FD012000F0A5FEFB7966
:10094000002B04D00F480121FFF7A0FD03E00D4864
:100950000121FFF7A9FD012000F096FE09480421BE
:10096000FFF7A2FDBB791B09DBB21846FFF796FF24
:10097000BB7903F00F03DBB21846FFF78FFF083790
:10098000BD4680BD0008014080B500AF00200121B8
:10099000FFF7C6FF00200221FFF7C2FF80BD00BFA6
:1009A00080B582B000AF0346FB71FB7963F07F0333
:1009B000DBB200201946FFF7B3FF0837BD4680BD04
:1009C00080B584B000AF03460A46FB711346BB7185
:1009D000BB79012B02D10023FB7304E0BB79022B0E
:1009E00001D14023FB73FA79FB7B1344DBB2013B5B
:1009F000FB73FB7B1846FFF7D3FF1037BD4680BD66
:100A000080B582B000AF0346FB71FB79073B052B35
:100A100025D801A252F823F0310A0008550A00082F
:100A20005F0A00084B0A00085F0A00083B0A00083A
:100A300001200121FFF7C4FF17E000200121FFF78B
:100A40006FFF022000F020FE0FE001200221FFF7DF
:100A5000B7FF0AE000201021FFF762FF05E0FB79F5
:100A600001201946FFF75CFF00BF0837BD4680BD77
:100A700080B584B000AF78607B68FB6007E0FB68FE
:100A80001B781846FFF7BCFFFB680133FB60FB686F
:100A90001B78002BF3D11037BD4680BD80B58EB0DA
:100AA00000AF78607B68002B03D13020FFF7A8FFF0
:100AB00047E07B68FB6200233B63FB6A002B03DAA1
:100AC000FB6A5B427B6301E0FB6A7B631BE0796B43
:100AD0001D4BA3FB0123DA0813469B0013445B0064
:100AE000CA1AD3B23033D9B207F10C023B6B1344AC
:100AF0000A461A707B6B144AA2FB0323DB087B6354
:100B00003B6B01333B637B6B002BE0D1FB6A002B1B
:100B100001DA2D2300E02B231846FFF771FF3B6B12
:100B2000013B3B630AE03B6B5A1E3A6307F1380214
:100B3000134413F82C3C1846FFF762FF3B6B002B65
:100B4000F1DA3837BD4680BDCDCCCCCC80B582B093
:100B500000AF78607B680D4A93420AD14FF40010D1
:100B60000121FFF7F7FD4FF400100021FFF7F2FD20
:100B700009E04FF480000121FFF7ECFD4FF4800005
:100B80000021FFF7E7FD0837BD4680BD0054004057
:100B900080B58AB000AF786039600023FB84002301
:100BA0007B840423BB84574BFB617B689B88FB845D
:100BB000FB8C23F03F03FB8407F108031846FFF783
:100BC000DBFC3B69FB61FB694F4AA2FB03239B0CE7
:100BD0007B84FA8C7B8C1343FB847B68FA8C9A8031
:100BE0007B681B889BB223F001039AB27B681A8052
:100BF0000023FB843B681B68444A934215D83B683A
:100C00001B685B00FA69B2FBF3F3BB84BB8C032B5C
:100C100001D80423BB84FA8CBB8C1343FB847B8CEC
:100C200001339AB27B681A8440E03B68DB884BF65C
:100C3000FF72934209D13B681A6813465B00134464
:100C4000FA69B2FBF3F3BB840EE03B681A68134603
:100C50009B0013449A001344FA69B2FBF3F3BB847C
:100C6000BB8C43F48043BB84BB8CC3F30B03002BCE
:100C700003D1BB8C43F00103BB84BA8CFB8C1343C0
:100C80009BB26FEA43436FEA5343FB847B8C4FF480
:100C9000967202FB03F31E4A82FB03129211DB17CA
:100CA000D31A9BB201339AB27B681A847B68FA8CA0
:100CB0009A837B681B889BB243F001039AB27B68DE
:100CC0001A807B681B88FB84FB8C23F4816323F0F0
:100CD0000203FB843B689A883B685B8913439AB2A2
:100CE000FB8C1343FB847B68FA8C1A803B689A89DF
:100CF0003B681B8913439AB27B681A812837BD462B
:100D000080BD00BF00127A0083DE1B43A086010075
:100D1000D34D621080B483B000AF78600B46FB7097
:100D2000FB78002B08D07B681B889BB243F0010343
:100D30009AB27B681A8007E07B681B889BB223F01D
:100D400001039AB27B681A800C37BD465DF8047BBC
:100D5000704700BF80B483B000AF78600B46FB7073
:100D6000FB78002B08D07B681B889BB243F4807310
:100D70009AB27B681A8007E07B681B889BB223F4D9
:100D800080739AB27B681A800C37BD465DF8047B8D
:100D9000704700BF80B483B000AF78600B46FB7033
:100DA000FB78002B08D07B681B889BB243F4007350
:100DB0009AB27B681A8007E07B681B889BB223F499
:100DC00000739AB27B681A800C37BD465DF8047BCD
:100DD000704700BF80B483B000AF78600B46FB70F3
:100DE000FB78002B08D07B681B889BB243F48063A0
:100DF0009AB27B681A8007E07B681B889BB223F459
:100E000080639AB27B681A800C37BD465DF8047B1C
:100E1000704700BF80B483B000AF78600B46FB70B2
:100E2000FB789AB27B681A820C37BD465DF8047B6A
:100E3000704700BF80B483B000AF78607B681B8AC6
:100E40009BB2DBB218460C37BD465DF8047B704799
:100E500080B483B000AF78600B46FB701346BB7064
:100E6000BB78002B04D0FB7843F00103FB7003E058
:100E7000FB7823F00103FB70FB789AB27B681A823F
:100E80000C37BD465DF8047B704700BF80B487B067
:100E900000AF7860396000233B610023FB600023D2
:100EA000BB600023FB757B689B8A9BB2FB607B6801
:100EB0001B8B9BB2BB60BB681B04BB60FA68BB6842
:100EC000134323F07F433B613A693B681A403B6818
:100ED0009A4202D10123FB7501E00023FB75FB7DE3
:100EE00018461C37BD465DF8047B704780B487B058
:100EF00000AF786039600023FB7500233B6100235D
:100F0000FB607B68FB603B681B0F3B613B6823F029
:100F10007F433B603B69002B03D0FB681433FB60CD
:100F200005E03B681B0C3B60FB681833FB60FB680B
:100F30001A683B681340002B02D00123FB7501E0C7
:100F40000023FB75FB7D18461C37BD465DF8047B0E
:100F5000704700BF80B586B000AF4FF4001001218C
:100F6000FFF7DAFB09200121FFF7B8FBC023BB80A4
:100F70000323BB711C23FB713B1D19481946FFF766
:100F8000C5F91848FFF7E2FD0023BB814BF6FF735C
:100F9000FB8130233B824FF480637B824FF480439C
:100FA000BB8242F21073BB6007F108030D4819467B
:100FB000FFF7EEFD0B480121FFF7ACFE09480121C8
:100FC000FFF708FF00F02CFB074B00221A70074BBD
:100FD000F5221A70064BF3221A701837BD4680BDF1
:100FE000000C014000540040380000203000002078
:100FF000480000200000000080B582B000AF002350
:10100000FB8000BF72484FF40031FFF76FFF0346CB
:10101000002BF7D16E480121FFF7DCFE6C4801215F
:10102000FFF798FE00BF6A486A49FFF72FFF0346A3
:10103000002BF8D0664880210022FFF709FF00BF8F
:1010400063486549FFF722FF0346002BF8D060484C
:101050000121FFF75FFE614B1B785D481946FFF7E2
:10106000D9FE00BF5A485E49FFF710FF0346002B28
:10107000F8D05C4B1B78012B0DD0012B02DC002B30
:1010800005D014E0802B0AD0812B0CD00FE0322049
:1010900000F0FAFA0BE0192000F0F6FA07E00D2054
:1010A00000F0F2FA03E0072000F0EEFA00BF484833
:1010B0000121FFF74FFE00BF45484649FFF7E6FE16
:1010C0000346002BF8D0424880210122FFF7C0FEE2
:1010D00000BF3F484449FFF7D9FE0346002BF8D034
:1010E00000BF3B484149FFF7D1FE0346002BF8D033
:1010F0003748FFF79FFE0346FB80FB881B02FB80FF
:1011000000BF33483949FFF7C1FE0346002BF8D032
:101110002F48FFF78FFE03469AB2FB881343FB80EC
:101120002B480021FFF756FE29480121FFF732FE28
:1011300000BF27482D49FFF7A9FE0346002BF8D032
:101140002348FFF777FE03467B7121480121FFF713
:1011500041FEFB88184600F0EFF903461A467B79FA
:10116000934202D04FF0000324E0FB88184600F0C1
:10117000C3FF0346184600F053FC02460B461046D8
:1011800019460FA3D3E9002300F09EFC02460B464C
:10119000104619460CA3D3E9002300F0E1FA0246F9
:1011A0000B461046194600F0A1FE0246104B1A608D
:1011B0000F4B1B6818460837BD4680BDAFF3008053
:1011C000992842EA76F6653FCDCCCCCCCC6C474032
:1011D0000054004001000300820007004800002086
:1011E00084000700380000200200030040000300D4
:1011F0003C000020AFF3008080B582B000AF002338
:10120000FB8000BF72484FF40031FFF76FFE0346CA
:10121000002BF7D16E480121FFF7DCFD6C4801215E
:10122000FFF798FD00BF6A486A49FFF72FFE0346A3
:10123000002BF8D0664880210022FFF709FE00BF8E
:1012400063486549FFF722FE0346002BF8D060484B
:101250000121FFF75FFD614B1B785D481946FFF7E1
:10126000D9FD00BF5A485E49FFF710FE0346002B28
:10127000F8D05C4B1B78012B0DD0012B02DC002B2E
:1012800005D014E0802B0AD0812B0CD00FE0102069
:1012900000F0FAF90BE0082000F0F6F907E005206D
:1012A00000F0F2F903E0032000F0EEF900BF484837
:1012B0000121FFF74FFD00BF45484649FFF7E6FD16
:1012C0000346002BF8D0424880210122FFF7C0FDE1
:1012D00000BF3F484449FFF7D9FD0346002BF8D033
:1012E00000BF3B484149FFF7D1FD0346002BF8D032
:1012F0003748FFF79FFD0346FB80FB881B02FB80FE
:1013000000BF33483949FFF7C1FD0346002BF8D031
:101310002F48FFF78FFD03469AB2FB881343FB80EB
:101320002B480021FFF756FD29480121FFF732FD28
:1013300000BF27482D49FFF7A9FD0346002BF8D031
:101340002348FFF777FD03467B7121480121FFF712
:1013500041FDFB88184600F0EFF803461A467B79FA
:10136000934202D04FF0000328E0FB8883F0020391
:10137000FB80FB88184600F0BFFE0346184600F0CD
:101380004FFB02460B46104619460FA3D3E9002334
:1013900000F09AFB02460B46104619464FF0000239
:1013A000134B00F0DDF902460B461046194600F0DB
:1013B0009DFD02460F4B1A600E4B1B6818460837FE
:1013C000BD4680BDAFF3008025CE8AA8893E5F3F31
:1013D000005400400100030082000700300000209C
:1013E00084000700380000200200030040000300D2
:1013F0000000184040000020B0B500AFFFF7FCFE31
:101400000246274B1A60FFF7F7FD0246254B1A608C
:10141000234B1B6818464FF0000100F009FF0346FC
:10142000002B09D11F4B1B6818464FF0000100F03C
:10143000FFFE0346002B02D04FF000032AE0184BBA
:101440001B68184600F0ECFA04460D46154B1B6865
:101450001548194600F09EFD0346184600F0E0FAD4
:1014600002460B46104619460BA3D3E9002300F0B1
:101470002BFB02460B462046294600F073F9024634
:101480000B461046194600F031FD0246074B1A6024
:10149000064B1B681846B0BD333333333333C3BFF9
:1014A000400000203C0000200000C8414400002013
:1014B00080B500AF00BF1C484FF40031FFF716FDA8
:1014C0000346002BF7D118480121FFF783FC16488B
:1014D0000121FFF73FFC00BF13481449FFF7D6FC7A
:1014E0000346002BF8D0104880210022FFF7B0FC03
:1014F00000BF0D480E49FFF7C9FC0346002BF8D08A
:101500000948FE21FFF786FC00BF07480949FFF79D
:10151000BDFC0346002BF8D003480121FFF73AFC3D
:101520000F2000F0B1F880BD00540040010003001E
:10153000820007008400070080B485B000AF034636
:10154000FB800023FB7311E0FB881BB2002B07DA42
:10155000FB885B009BB283F444539BB2FB8002E0A8
:10156000FB885B00FB80FB7B0133FB73FB7B0F2B5A
:10157000EAD9FB881B0AFB80FB88DBB218461437CC
:10158000BD465DF8047B704780B483B000AF03466E
:101590003960FB7197F90730002B0BDA0D49FB79A5
:1015A00003F00F03043B3A68D2B21201D2B20B44EB
:1015B0001A7609E0084997F907303A68D2B2120161
:1015C000D2B20B4483F800230C37BD465DF8047B90
:1015D000704700BF00ED00E000E100E080B582B0A0
:1015E00000AF78607B68B3F1807F01D3012311E005
:1015F0000A4A7B6823F07F43013B53604FF0FF3082
:101600000F21FFF7C1FF054B00229A60034B072211
:101610001A60002318460837BD4680BD10E000E080
:1016200080B586B000AF124B00221A60114B002229
:101630001A60114B00221A60104B00221A600F4BE7
:1016400000225A600E4B00221A600D4B00225A6095
:101650003B1D1846FEF790FFBB680A4AA2FB032316
:101660009B091846FFF7BAFF1837BD4680BD00BF7B
:1016700014000020180000201C0000202000002082
:1016800028000020D34D621080B483B000AF786092
:101690007B68064A136000BF044B1B68002BFBD11C
:1016A0000C37BD465DF8047B704700BF1400002076
:1016B00080B584B000AF78600023FB6006E04FF493
:1016C0007A70FFF7E1FFFB680133FB607B68FA6823
:1016D0009A42F4D31037BD4680BD00BF80B400AF3E
:1016E000184B1B68002B04D0164B1B68013B154A96
:1016F0001360154B1B68002B04D0134B1B68013B78
:10170000114A1360114B1B68002B04D00F4B1B6850
:10171000013B0E4A13600E4B1B68002B04D00C4B90
:101720005B6801330A4A53600A4B1B68002B04D0E4
:10173000084B5B680133074A5360BD465DF8047B84
:10174000704700BF14000020180000201C0000207B
:10175000200000202800002081F0004102E000BFAE
:1017600083F0004330B54FEA41044FEA430594EA61
:10177000050F08BF90EA020F1FBF54EA000C55EA9C
:10178000020C7FEA645C7FEA655C00F0E2804FEA6D
:101790005454D4EB5555B8BF6D420CDD2C4480EA4F
:1017A000020281EA030382EA000083EA010180EA7F
:1017B000020281EA0303362D88BF30BD11F0004FCD
:1017C0004FEA01314FF4801C4CEA113102D0404203
:1017D00061EB410113F0004F4FEA03334CEA13333E
:1017E00002D0524263EB430394EA050F00F0A78056
:1017F000A4F10104D5F1200E0DDB02FA0EFC22FA51
:1018000005F2801841F1000103FA0EF2801843FA44
:1018100005F359410EE0A5F120050EF1200E012A35
:1018200003FA0EFC28BF4CF0020C43FA05F3C01873
:1018300051EBE37101F0004507D54FF0000EDCF1EC
:10184000000C7EEB00006EEB0101B1F5801F1BD395
:10185000B1F5001F0CD349085FEA30004FEA3C0C99
:1018600004F101044FEA445212F5800F80F09A808F
:10187000BCF1004F08BF5FEA500C50F1000041EB93
:10188000045141EA050130BD5FEA4C0C404141EB97
:10189000010111F4801FA4F10104E9D191F0000FBE
:1018A00004BF01460020B1FA81F308BF2033A3F141
:1018B0000B03B3F120020CDA0C3208DD02F1140C38
:1018C000C2F10C0201FA0CF021FA02F10CE002F173
:1018D0001402D8BFC2F1200C01FA02F120FA0CFC6C
:1018E000DCBF41EA0C019040E41AA2BF01EB0451B5
:1018F000294330BD6FEA04041F3C1CDA0C340EDCB3
:1019000004F11404C4F1200220FA04F001FA02F3F5
:1019100040EA030021FA04F345EA030130BDC4F1B3
:101920000C04C4F1200220FA02F001FA04F340EAA8
:101930000300294630BD21FA04F0294630BD94F059
:10194000000F83F4801306BF81F480110134013D40
:101950004EE77FEA645C18BF7FEA655C29D094EAB1
:10196000050F08BF90EA020F05D054EA000C04BF2F
:101970001946104630BD91EA030F1EBF002100201A
:1019800030BD5FEA545C05D14000494128BF41F0B9
:10199000004130BD14F580043CBF01F5801130BD1D
:1019A00001F0004545F0FE4141F470014FF00000A8
:1019B00030BD7FEA645C1ABF194610467FEA655C59
:1019C0001CBF0B46024650EA013406BF52EA0335FB
:1019D00091EA030F41F4002130BD00BF90F0000FE9
:1019E00004BF0021704730B54FF4806404F1320425
:1019F0004FF000054FF0000150E700BF90F0000FDE
:101A000004BF0021704730B54FF4806404F1320404
:101A100010F0004548BF40424FF000013EE700BFD4
:101A200042004FEAE2014FEA31014FEA02701FBF64
:101A300012F07F4393F07F4F81F06051704792F036
:101A4000000F14BF93F07F4F704730B54FF46074B0
:101A500001F0004521F0004120E700BF50EA0102FB
:101A600008BF704730B54FF000050AE050EA0102A8
:101A700008BF704730B511F0004502D5404261EB18
:101A800041014FF4806404F132045FEA915C3FF459
:101A9000DCAE4FF003025FEADC0C18BF03325FEAF2
:101AA000DC0C18BF033202EBDC02C2F1200300FAA7
:101AB00003FC20FA02F001FA03FE40EA0E0021FACC
:101AC00002F11444C1E600BF70B54FF0FF0C4CF4B6
:101AD000E06C1CEA11541DBF1CEA135594EA0C0F6C
:101AE00095EA0C0F00F0DEF82C4481EA030621EAA7
:101AF0004C5123EA4C5350EA013518BF52EA0335E2
:101B000041F4801143F4801338D0A0FB02CE4FF093
:101B10000005E1FB02E506F00042E0FB03E54FF0C3
:101B20000006E1FB03569CF0000F18BF4EF0010EBB
:101B3000A4F1FF04B6F5007F64F5407404D25FEAB7
:101B40004E0E6D4146EB060642EAC62141EA55516A
:101B50004FEAC52040EA5E504FEACE2EB4F1FD0CAC
:101B600088BFBCF5E06F1ED8BEF1004F08BF5FEA2A
:101B7000500E50F1000041EB045170BD06F00046DC
:101B800046EA010140EA020081EA0301B4EB5C0489
:101B9000C2BFD4EB0C0541EA045170BD41F4801181
:101BA0004FF0000E013C00F3AB8014F1360FDEBFA6
:101BB000002001F0004170BDC4F10004203C35DA82
:101BC0000C341BDC04F11404C4F1200500FA05F305
:101BD00020FA04F001FA05F240EA020001F00042A6
:101BE00021F0004110EBD37021FA04F642EB06011C
:101BF0005EEA430E08BF20EAD37070BDC4F10C0446
:101C0000C4F1200500FA04F320FA05F001FA04F209
:101C100040EA020001F0004110EBD37041F10001F5
:101C20005EEA430E08BF20EAD37070BDC4F1200500
:101C300000FA05F24EEA020E20FA04F301FA05F268
:101C400043EA020321FA04F001F0004121FA04F210
:101C500020EA020000EBD3705EEA430E08BF20EAE0
:101C6000D37070BD94F0000F0FD101F0004640001A
:101C700041EB010111F4801F08BF013CF7D041EA9C
:101C8000060195F0000F18BF704703F000465200A0
:101C900043EB030313F4801F08BF013DF7D043EA71
:101CA0000603704794EA0C0F0CEA135518BF95EA27
:101CB0000C0F0CD050EA410618BF52EA4306D1D1AE
:101CC00081EA030101F000414FF0000070BD50EACD
:101CD000410606BF1046194652EA430619D094EA57
:101CE0000C0F02D150EA013613D195EA0C0F05D141
:101CF00052EA03361CBF104619460AD181EA030195
:101D000001F0004141F0FE4141F470014FF000004C
:101D100070BD41F0FE4141F4780170BD70B54FF0E7
:101D2000FF0C4CF4E06C1CEA11541DBF1CEA135567
:101D300094EA0C0F95EA0C0F00F0A7F8A4EB050449
:101D400081EA030E52EA03354FEA013100F0888040
:101D50004FEA03334FF0805545EA131343EA126309
:101D60004FEA022245EA111545EA10654FEA0026BE
:101D70000EF000419D4208BF964244F1FD0404F577
:101D8000407402D25B084FEA3202B61A65EB0305D3
:101D90005B084FEA32024FF480104FF4002CB6EB90
:101DA000020E75EB030E22BFB61A754640EA0C0010
:101DB0005B084FEA3202B6EB020E75EB030E22BF50
:101DC000B61A754640EA5C005B084FEA3202B6EB91
:101DD000020E75EB030E22BFB61A754640EA9C0050
:101DE0005B084FEA3202B6EB020E75EB030E22BF20
:101DF000B61A754640EADC0055EA060E18D04FEADE
:101E0000051545EA16754FEA06164FEAC30343EA7D
:101E100052734FEAC2025FEA1C1CC0D111F4801F4A
:101E20000BD141EA00014FF000004FF0004CB6E743
:101E300011F4801F04BF01430020B4F1FD0C88BFE2
:101E4000BCF5E06F3FF6AFAEB5EB030C04BFB6EBED
:101E5000020C5FEA500C50F1000041EB045170BDE0
:101E60000EF0004E4EEA113114EB5C04C2BFD4EB0D
:101E70000C0541EA045170BD41F480114FF0000E91
:101E8000013C90E645EA060E8DE60CEA135594EA0D
:101E90000C0F08BF95EA0C0F3FF43BAF94EA0C0F10
:101EA0000AD150EA01347FF434AF95EA0C0F7FF485
:101EB00025AF104619462CE795EA0C0F06D152EAD9
:101EC00003353FF4FDAE1046194622E750EA4106BD
:101ED00018BF52EA43067FF4C5AE50EA41047FF4CE
:101EE0000DAF52EA43057FF4EBAE12E74FEA410231
:101EF000B2F1E04324BFB3F5001CDCF1FE5C0DD968
:101F000001F0004C4FEAC0024CEA5070B2F1004FB1
:101F100040EB830008BF20F00100704711F0804FB4
:101F200021D113F13872BCBF01F00040704741F479
:101F300080114FEA5252C2F11802C2F1200C10FA7D
:101F40000CF320FA02F018BF40F001004FEAC12361
:101F50004FEAD32303FA0CFC40EA0C0023FA02F305
:101F60004FEA4303CCE77FEA625307D150EA0133DB
:101F70001EBF4FF0FE4040F44000704701F00040AB
:101F800040F0FE4040F40000704700BF80F0004089
:101F900002E000BF81F0004142001FBF5FEA410341
:101FA00092EA030F7FEA226C7FEA236C6AD04FEA41
:101FB0001262D2EB1363C1BFD21841404840414086
:101FC000B8BF5B42192B88BF704710F0004F40F438
:101FD000000020F07F4018BF404211F0004F41F454
:101FE000000121F07F4118BF494292EA030F3FD020
:101FF000A2F1010241FA03FC10EB0C00C3F1200333
:1020000001FA03F100F0004302D5494260EB4000C1
:10201000B0F5000F13D3B0F1807F06D340084FEA2C
:10202000310102F10102FE2A51D2B1F1004F40EB21
:10203000C25008BF20F0010040EA03007047490089
:1020400040EB000010F4000FA2F10102EDD1B0FA54
:1020500080FCACF1080CB2EB0C0200FA0CF0AABF49
:1020600000EBC25052421843BCBFD04018437047E7
:1020700092F0000F81F4000106BF80F400000132ED
:10208000013BB5E74FEA41037FEA226C18BF7FEAC4
:10209000236C21D092EA030F04D092F0000F08BF06
:1020A0000846704790EA010F1CBF0020704712F0ED
:1020B0007F4F04D1400028BF40F00040704712F12C
:1020C00000723CBF00F50000704700F0004343F091
:1020D000FE4040F4000070477FEA226216BF0846C7
:1020E0007FEA23630146420206BF5FEA412390EA8A
:1020F000010F40F4800070474FF0000304E000BF80
:1021000010F0004348BF40425FEA000C08BF704730
:1021100043F0964301464FF000001CE050EA0102F4
:1021200008BF70474FF000030AE000BF50EA010209
:1021300008BF704711F0004302D5404261EB4101F6
:102140005FEA010C02BF84460146002043F0B6431B
:1021500008BFA3F18053A3F50003BCFA8CF2083A40
:10216000A3EBC25310DB01FA02FC634400FA02FC49
:10217000C2F12002BCF1004F20FA02F243EB020050
:1021800008BF20F00100704702F1200201FA02FCB2
:10219000C2F1200250EA4C0021FA02F243EB0200A5
:1021A00008BF20EADC7070474FF0FF3C06E000BF3C
:1021B0004FF0010C02E000BF4FF0010C4DF804CDD0
:1021C0004FEA40024FEA41037FEA226C18BF7FEAE0
:1021D000236C11D001B052EA530C18BF90EA010FE2
:1021E00058BFB2EB030088BFC81738BF6FEAE17071
:1021F00018BF40F0010070477FEA226C02D15FEA0D
:10220000402C05D17FEA236CE4D15FEA412CE1D078
:102210005DF8040B704700BF844608466146FFE73F
:102220000FB5FFF7C9FF002848BF10F1000F0FBD21
:102230004DF808EDFFF7F4FF0CBF012000205DF81A
:1022400008FB00BF4DF808EDFFF7EAFF34BF01209F
:1022500000205DF808FB00BF4DF808EDFFF7E0FF38
:1022600094BF012000205DF808FB00BF4DF808ED89
:10227000FFF7D2FF94BF012000205DF808FB00BFEC
:102280004DF808EDFFF7C8FF34BF012000205DF8CE
:1022900008FB00BF4FEA4002B2F1FE4F0FD34FF0F0
:1022A0009E03B3EB12620DD94FEA002343F00043C3
:1022B00010F0004F23FA02F018BF404270474FF071
:1022C0000000704712F1610F01D1420205D110F0F8
:1022D000004008BF6FF0004070474FF000007047AB
:1022E00054656D70657261747572653A0000000026
:0C22F00048756D69646974793A0000005B
:1022FC0000000000010203040102030406070809A0
:04230C0002040608B9
:0400000508000000EF
:00000001FF
